:100000002AC013C343C042C041C040C03FC03EC02D
:100010003DC03CC03BC098C239C038C037C036C0B4
:1000200035C000003900360000003A0037000000FB
:100030003B0038000101010101010101020202013E
:1000400002040810204080040201000000000004A7
:1000500003020100000011241FBECFE5D1E0DEBF86
:10006000CDBF10E0A0E6B0E0E0EAFCE002C0059001
:100070000D92AA36B107D9F720E0AAE6B0E001C098
:100080001D92AF39B207E1F7F7D208C6B9CF823077
:1000900099F018F4813069F00895833019F08430B4
:1000A00021F008958FB58F7702C08FB58F7D8FBDFA
:1000B000089580B78F7702C080B78F7D80BF089585
:1000C0001F93CF93DF93282F30E0F901E65BFF4FBA
:1000D0008491F901E15CFF4FD491F901EC5CFF4F91
:1000E000C491CC23B9F0162F8111D1DFEC2FF0E0B1
:1000F000EE0FFF1FE25DFF4FA591B4919FB7F894FB
:10010000111104C08C91D095D82302C0EC91DE2B44
:10011000DC939FBFDF91CF911F910895CF93DF9321
:1001200090E0FC01E15CFF4F2491FC01EC5CFF4F8F
:100130008491882361F190E0880F991FFC01E85DAC
:10014000FF4FC591D491FC01E25DFF4FA591B491A1
:10015000611109C09FB7F894888120958223888314
:10016000EC912E230BC0623061F49FB7F894888124
:10017000322F309583238883EC912E2B2C939FBFB5
:1001800006C08FB7F894E8812E2B28838FBFDF91AC
:10019000CF9108951F93CF93DF93182FEB0161E068
:1001A000BDDF209711F460E004C0CF3FD10531F4EA
:1001B00061E0812FDF91CF911F9182CFE12FF0E09D
:1001C000E65BFF4FE491E23091F038F4E130D1F496
:1001D00080B7806880BFC6BF19C0E33069F0E430E3
:1001E00089F48FB580628FBDD9BDC8BD0FC080B7FF
:1001F000806280BFCCBF0AC08FB580688FBDDBBD79
:10020000CABD04C0C038D1059CF6CDCFDF91CF91D7
:100210001F9108958E3008F08E5093B183FB2227F2
:1002200020F930E045E0220F331F4A95E1F79F7D2A
:10023000292B23B9877087B9369A3699FECF84B1B6
:1002400025B190E0922B08953FB7F89480919B00E0
:1002500090919C00A0919D00B0919E0022B708B69D
:1002600000FE05C02F3F19F00196A11DB11D3FBF33
:10027000BA2FA92F982F8827820F911DA11DB11D7C
:10028000BC01CD0143E0660F771F881F991F4A9577
:10029000D1F708952FB7F894609197007091980066
:1002A0008091990090919A002FBF089508958091B0
:1002B000820081110CC081E080938200EBDF6093AB
:1002C0007E0070937F00809380009093810008955A
:1002D00010926B0010926A0010926C0060E070E067
:1002E00086E058DF60E070E087E054DF60E070E0B7
:1002F00084E050DF60E070E088E04CDF60E070E0B8
:1003000085E048CF8FEF80936B0080936A008093E5
:100310006C006FEF70E086E03DDF6FEF70E087E02C
:1003200039DF6FEF70E084E035DF6FEF70E088E079
:1003300031DF6FEF70E085E02DCF82E06BDF833C33
:1003400091404CF08091920081112BC081E080930C
:100350009200D8DF1AC080E05DDF833C914044F01A
:100360008091850081111DC081E0809385000CC0C3
:1003700081E050DF833C9140A4F0809184008111A2
:1003800010C081E08093840092DF81E080938A0036
:1003900081DF60938600709387008093880090933C
:1003A0008900089580E036DF833C91405CF481E071
:1003B00031DF833C914034F482E02CDF833C914078
:1003C0000CF4089580919500811110929500809110
:1003D000830081111092830010928C0010928B0088
:1003E000ACCF80919300823089F058F4813009F0CD
:1003F00044C08FEF80936B0010926A006FE370E04F
:100400000CC0833069F0843099F037C010926B00D3
:100410008FEF80936A006FE770E087E0BBDE41C03A
:100420008FEF80936B0080936A006FEF70E0F5CFE1
:1004300080917800811135C081E08093780010921E
:10044000760090916900911102C0809369008091BB
:100450006800811103C081E080936800809167008B
:10046000811103C081E08093670080916600811153
:1004700018C081E08093660014C0809178008111DB
:100480001092780010926B0010926A0060E070E0A9
:1004900087E080DE1092930080918300811110929A
:1004A000830060916B0070E084E074DE60916A000C
:1004B00070E085E06FCE909194008091770092304B
:1004C000B9F018F4913039F02AC09330F9F0943033
:1004D00031F591E01CC09FE790936C008111109260
:1004E00077006FE770E088E055DE6FE770E00CC0E2
:1004F0009FEF90936C008111109277006FEF70E086
:1005000088E048DE6FEF70E086E044CE9FE0909395
:100510006500811118C081E08093770008951092E2
:10052000940010926C0081111092770060E070E0EE
:1005300088E030DE60E070E086E02CDE80918300B1
:1005400081111092830008951F920F920FB60F929F
:1005500011242F933F938F939F93AF93BF938091D9
:10056000970090919800A0919900B0919A003091D5
:10057000960026E0230F2D3720F40296A11DB11D11
:1005800005C029E8230F0396A11DB11D20939600F5
:100590008093970090939800A0939900B0939A004D
:1005A00080919B0090919C00A0919D00B0919E0035
:1005B0000196A11DB11D80939B0090939C00A09378
:1005C0009D00B0939E00BF91AF919F918F913F91FD
:1005D0002F910F900FBE0F901F9018951F920F92A2
:1005E0000FB60F9211242F933F934F935F936F9306
:1005F0007F938F939F93AF93BF93EF93FF93E0917C
:100600006200F09163000995FF91EF91BF91AF9166
:100610009F918F917F916F915F914F913F912F911A
:100620000F900FBE0F901F9018951F920F920FB64C
:100630000F9211242F933F934F935F936F937F9368
:100640008F939F93AF93BF93EF93FF93E0916000DD
:10065000F09161000995FF91EF91BF91AF919F914A
:100660008F917F916F915F914F913F912F910F905B
:100670000FBE0F901F901895789480B7826080BF4E
:1006800080B7816080BF83B7826083BF83B781609A
:1006900083BF89B7816089BF1EBC8EB582608EBD65
:1006A0008EB581608EBD8FB581608FBD329A319AD3
:1006B0003098379A61E083E031DD60E080E02EDD44
:1006C00060E081E02BDD60E082E028DD61E088E031
:1006D00025DD61E084E022DD61E085E01FDD61E091
:1006E00086E01CDD61E087E019DD61E083E0E8DCA5
:1006F00081E090DD8F3591400CF0AEC280E08ADD64
:100700008F3591400CF0A8C282E084DD8F35914096
:100710006CF081E07FDD833C91400CF09DC280E075
:1007200079DD833C91400CF097C29BC260E083E08E
:10073000C7DC2DE4822E20E0922EC2E4D0E007E355
:1007400010E030E0A32E30E0B32E332433944EEF8C
:10075000242E80919500882309F44FC08091940045
:10076000811108C080919300811104C08091920092
:10077000882329F080919100882309F481C08ADDC3
:10078000C0908D00D0908E00E0908F00F09090008F
:10079000DC01CB018C199D09AE09BF09883E93404D
:1007A000A105B10508F466C060E083E089DC4CDD9A
:1007B0002B013C0198E8C92E93E1D92EE12CF12CB4
:1007C00043DDDC01CB0184199509A609B709883EF0
:1007D0009340A105B105A0F331E0C31AD108E108A7
:1007E000F10888EE480E83E0581E611C711CC1148C
:1007F000D104E104F10421F729C280918C008823FF
:1008000009F45CC08091830081110BC2F0908B00D1
:10081000E5E0EF1508F41AC23DDD40907A005090F3
:100820007B0060907C0070907D00DC01CB0184191E
:100830009509A609B70984369105A105B10508F007
:10084000CAC180918B008630A9F424DD60938D00AD
:1008500070938E0080938F0090939000309295005B
:1008600060E070E086E096DC60E070E087E092DCBB
:1008700010928C00809191008111E8C193DDE6C156
:100880001092950010928C0010928B00F4018491CC
:10089000FE01F490F801E490EE2009F4FBC181110F
:1008A000F6DBEE2DF0E0EE0FFF1FEE5DFF4FA591A2
:1008B000B4918C91F82209F4EDC1C8C180918A00ED
:1008C000811102C03ADDAFC0E5DCC0908600D09057
:1008D0008700E0908800F0908900DC01CB018C1942
:1008E0009D09AE09BF0985369105A105B10508F43A
:1008F0009EC080919200811102C0F12C0BC082E059
:1009000089DC84369105CCF710929200D4DD69DD44
:10091000FF24F39480918500882379F080E07ADCCD
:100920008436910554F410928500809194008F5F75
:1009300080939400C0DDFF24F39480918400882389
:1009400071F081E067DC843691054CF410928400EC
:10095000809193008F5F8093930043DD02C0FF205E
:1009600059F080918200882339F0109282008091A2
:10097000830081111092830080919200811121C027
:100980008091850081111DC080918400811119C062
:1009900080919400811109C080919300811105C05C
:1009A00030928C0010928B000AC0809183008111DC
:1009B0001092830080918C00811110928C00109213
:1009C0008A0068DC609386007093870080938800BB
:1009D0009093890020918200222329F1C0907E000B
:1009E000D0907F00E0908000F0908100DC01CB018E
:1009F0008C199D09AE09BF09803D9740A105B1053D
:100A000090F030928C0010928B00109282008091B6
:100A10009100811103C0309291005ADC80918300D3
:100A20008111109283008091950081110FC18091F6
:100A3000920081110BC180917800882309F480C055
:100A4000F0907600F11018C025DCC0907200D090B4
:100A50007300E0907400F0907500DC01CB018C19FC
:100A60009D09AE09BF09813D9740A105B10508F474
:100A700067C03092760064C00DDC409072005090E8
:100A800073006090740070907500DC01CB018419D4
:100A90009509A609B7094F97A105B10508F450C0FB
:100AA00081E08F0D8093760090916900992359F031
:100AB000873020F434E03093710020C01092690038
:100AC000309268001BC090916800992359F08D30D6
:100AD00020F485E08093710011C01092680030927C
:100AE00067000CC090916700992341F0833110F3A7
:100AF0001092670030926900109276008091660033
:100B0000882351F0109266006FEF70E080917100C1
:100B100041DB6FEF70E009C03092660060E070E08A
:100B20008091710037DB60E070E087E033DBB2DB9F
:100B300060937200709373008093740090937500BB
:100B400080917700882309F481C0A4DBC0906D00F8
:100B5000D0906E00E0906F00F0907000AB01BC018F
:100B60004C195D096E097F098091650090E0A0E055
:100B7000B0E084179507A607B70708F067C0909103
:100B8000640080916C00992349F08F3F11F08F5FD2
:100B900008C01092640020926C000AC0882321F0E3
:100BA000815080936C0004C03092640030926C00DD
:100BB000E0906C00F12CB70188E0ECDAB70186E038
:100BC000E9DA68DB60936D0070936E0080936F00CC
:100BD000909370003BC08091790081110BC06FEF42
:100BE00070E086E0D7DA6FEF70E087E0D3DA30921A
:100BF00079000AC060E070E086E0CCDA60E070E086
:100C000087E0C8DA1092790045DB60937A00709330
:100C10007B0080937C0090937D00F394F0928B0096
:100C200010CE60E070E086E0B5DA60E070E087E06A
:100C3000B1DA10928C00309295002CDB60938D001D
:100C400070938E0080938F0090939000A114B10454
:100C500009F47FCDD5D97DCD61E083E031DA6DDB5C
:100C600068CD82E0D7DA20919200833C914044F035
:100C700021114FCD81E08093920044DB61E007C0F9
:100C8000222309F446CD1092920022DB60E083E03B
:100C900017DA3FCD61E083E013DAD8CFF894FFCFC5
:0A0CA00056015601010A010101018D
:00000001FF
